:100000000C942A000C9447000C9447000C94470071
:100010000C9447000C9447000C94ED000C949B004A
:100020000C94C4000C9472000C9447000C9447008C
:100030000C9447000C9447000C9447000C94470024
:100040000C944A000C9447000C9447000C94470011
:100050000C94470011241FBECFE5D8E0DEBFCDBF12
:1000600010E0A0E6B0E0E0E3F2E002C005900D92FF
:10007000A036B107D9F720E0A0E6B0E001C01D929C
:10008000AA36B207E1F70E9449000C9416010C94BD
:100090000000FFCF1F920F920FB60F9211242F93E3
:1000A0003F938F939F9324B130E03093610020936E
:1000B000600085B1982F9370892F90E0982F882742
:1000C000820F931F909361008093600086B18061DE
:1000D00086B99F918F913F912F910F900FBE0F90F6
:1000E0001F9018951F920F920FB60F9211242F9305
:1000F0003F934F935F936F937F938F939F93AF93B0
:10010000BF93EF93FF93E0916800F09169003097FF
:1001100009F00995FF91EF91BF91AF919F918F9158
:100120007F916F915F914F913F912F910F900FBEF3
:100130000F901F9018951F920F920FB60F921124D7
:100140002F933F934F935F936F937F938F939F93DF
:10015000AF93BF93EF93FF93E0916600F091670038
:10016000309709F00995FF91EF91BF91AF919F9161
:100170008F917F916F915F914F913F912F910F9050
:100180000FBE0F901F9018951F920F920FB60F92EF
:1001900011242F933F934F935F936F937F938F938C
:1001A0009F93AF93BF93EF93FF93E0916400F0911F
:1001B0006500309709F00995FF91EF91BF91AF91DC
:1001C0009F918F917F916F915F914F913F912F916F
:1001D0000F900FBE0F901F9018951F920F920FB6A1
:1001E0000F9211242F933F934F935F936F937F93BD
:1001F0008F939F93AF93BF93EF93FF93E091620030
:10020000F0916300309709F00995FF91EF91BF914C
:10021000AF919F918F917F916F915F914F913F919E
:100220002F910F900FBE0F901F901895F894FFCF4D
:00000001FF
